S01700004763634170706C69636174696F6E322E737265635A
S11300000C942A000C943F000C943F000C943F0085
S11300100C943F000C943F000C943F000C943F0060
S11300200C943F000C943F000C943F000C943F0050
S11300300C943F000C943F000C943F000C943F0040
S11300400C943F000C943F000C943F000C943F0030
S11300500C943F0011241FBECFE5D8E0DEBFCDBF16
S113006010E0A0E6B0E0ECE6F1E002C005900D92ED
S1130070AA36B107D9F70E948F000C94B4000C94EF
S11300800000CF93DF93CDB7DEB72A970FB6F8946D
S1130090DEBF0FBECDBF9AE0E0E6F0E0DE011196D0
S11300A001900D929A95E1F7E1E0F0E0EC0FFD1F6D
S11300B0E80FF11D808185BB2A960FB6F894DEBF48
S11300C00FBECDBFDF91CF9108958FEF85BB2FE396
S11300D08DE093E0215080409040E1F700C00000A3
S11300E0089580E090E061E070E035B3AB01082E44
S11300F002C0440F551F0A94E2F7242F20952323AE
S113010025BB2FE33DE043E0215030404040E1F780
S113011000C0000001968830910539F70895D09801
S11301208FEF84BB80E00E944100C0E0C899FECFFD
S1130130CF5FCA3028F00E9465000E947100C0E0C1
S11301408C2F0E9441008FE493EC0197F1F700C0DB
S11301500000C899EBCF83ED90E30197F1F700C05D
S10F01600000C89BF8CFE2CFF894FFCF5A
S10D016C3F065B4F666D7D077F6F51
S9030000FC
